:100000000C945D000C9485000C9485000C94850084
:100010000C9485000C9485000C9485000C9485004C
:100020000C9485000C9485000C9485000C9485003C
:100030000C9485000C9485000C9485000C9485002C
:100040000C94D7020C9485000C9485000C948500C8
:100050000C9485000C9485000C9485000C9485000C
:100060000C9485000C94850000000008000201003B
:100070000003040700000000000000000000000072
:10008000250028002B0000000000240027002A0083
:10009000040404040404040402020202020203032E
:1000A0000303030301020408102040800102040836
:1000B0001020010204081020300411241FBECFEFCD
:1000C000D8E0DEBFCDBF11E0A0E0B1E0E8EBF8E0A2
:1000D00002C005900D92AA39B107D9F721E0AAE92B
:1000E000B1E001C01D92AB3BB207E1F710E0CDE5F6
:1000F000D0E004C02197FE010E944F04CC35D10707
:10010000C9F70E9421030C945A040C94000090E05B
:10011000FC01EC55FF4F2491FC01E057FF4F849107
:10012000882399F090E0880F991FFC01EA57FF4F50
:10013000A591B491FC01E458FF4F859194918FB73C
:10014000F894EC91E22BEC938FBF0895CF92DF925D
:10015000EF92FF920F931F93CF93DF936C017A017D
:100160008B01C0E0D0E0CE15DF0589F0D8016D919C
:100170008D01D601ED91FC910190F081E02DC60139
:100180000995892B11F47E0102C02196ECCFC7019D
:10019000DF91CF911F910F91FF90EF90DF90CF9063
:1001A000089590E0FC01E859FF4F3491FC01EC55B3
:1001B000FF4F2491FC01E057FF4FE491EE2309F437
:1001C0003BC0332339F1333091F038F43130A9F0AA
:1001D000323001F584B58F7D12C0373091F0383060
:1001E000A1F03430B9F4809180008F7D03C08091FC
:1001F00080008F77809380000DC084B58F7784BD99
:1002000009C08091B0008F7703C08091B0008F7DCE
:100210008093B000F0E0EE0FFF1FE458FF4FA59170
:10022000B4918FB7F894EC91611103C020952E23FF
:1002300001C02E2B2C938FBF08953FB7F894809167
:100240009F019091A001A091A101B091A20126B5BA
:10025000A89B05C02F3F19F00196A11DB11D3FBFFE
:10026000BA2FA92F982F8827820F911DA11DB11D8C
:10027000BC01CD0142E0660F771F881F991F4A9588
:10028000D1F70895CF93DF93EC0160E08E810E9457
:10029000D10061E08E810E94D10060E08E810E94D9
:1002A000D1008BE891E00197F1F7DF91CF910895AC
:1002B000CF92DF92EF92FF920F931F93CF93DF9332
:1002C0007C016C0187E0C80ED11CC0E0D0E0062F95
:1002D00010E0B8010C2E02C0759567950A94E2F7FC
:1002E0006170F60181916F010E94D1002196C430A6
:1002F000D10579F7C701DF91CF911F910F91FF9041
:10030000EF90DF90CF900C944201CF92DF92EF926A
:10031000FF920F931F93CF93DF93EC01F62E642F80
:100320008C810E94D1008D818F3F19F060E00E9486
:10033000D1008F850F2D10E084FF25C06E0187E06E
:10034000C80ED11CE12CF12CB8010E2C02C0759501
:1003500067950A94E2F76170F60181916F010E943E
:10036000D100FFEFEF1AFF0A88E0E816F10461F709
:10037000CE01DF91CF911F910F91FF90EF90DF9011
:10038000CF900C944201B80184E0759567958A95E9
:10039000E1F7CE010E9458016F2DCE01DF91CF9180
:1003A0001F910F91FF90EF90DF90CF900C94580128
:1003B00041E00E94850181E090E0089540E00C94C6
:1003C0008501EF92FF920F931F93CF93DF93EC0180
:1003D000623018F08F8588608F876B8B1C8A80E471
:1003E0008D8B80E18E8B80E58F8B8C810E948700C6
:1003F0008D818F3F11F00E9487008E810E948700BF
:100400007E0187E0E80EF11C00E010E08F8584FD9E
:1004100003C084E090E002C088E090E0081719076C
:1004200044F4F70181917F010E9487000F5F1F4F05
:10043000EDCF8BE39DE00197F1F760E08C810E94A6
:10044000D10060E08E810E94D1008D818F3F19F034
:1004500060E00E94D1006F8564FD1DC063E0CE01A5
:100460000E9458010BE416E4C8010197F1F763E01C
:10047000CE010E945801C8010197F1F763E0CE0157
:100480000E94580183E592E00197F1F762E0CE0106
:100490000E94580116C06062CE010E94DE018BE40A
:1004A00096E40197F1F76F856062CE010E94DE014C
:1004B00083E592E00197F1F76F856062CE010E94BB
:1004C000DE016F856062CE010E94DE0184E0888BD0
:1004D0006CE0CE010E94DE0161E0CE010E94DE01EF
:1004E0008BE39FE10197F1F782E0898B66E0CE0113
:1004F000DF91CF911F910F91FF90EF900C94DE014F
:10050000643008F063E09091B601691710F06FEF66
:10051000690FE62FF0E0ED55FE4F9489682F690FC3
:10052000606883EA91E00C94DE01EF92FF920F93F2
:100530001F93CF93DF931F92CDB7DEB7162F87702F
:1005400028E0829FC0011124682F606483EA91E053
:1005500079830E94DE01E12E7981F72E8701085F01
:100560001F4FF70161917F0183EA91E00E94D8015A
:10057000E016F106B1F70F90DF91CF911F910F9127
:10058000FF90EF900895009769F0FC010190002022
:10059000E9F73197AF01481B590BBC0183EA91E0A1
:1005A0000C94A60080E090E008950E9455041F92EC
:1005B0000F920FB60F9211242F933F938F939F9317
:1005C000AF93BF9380919B0190919C01A0919D015D
:1005D000B0919E0130919A0123E0230F2D3720F432
:1005E0000196A11DB11D05C026E8230F0296A11D8D
:1005F000B11D20939A0180939B0190939C01A0933D
:100600009D01B0939E0180919F019091A001A091C6
:10061000A101B091A2010196A11DB11D80939F017E
:100620009093A001A093A101B093A201BF91AF91BB
:100630009F918F913F912F910F900FBE0F901F9020
:100640001895CF93DF93CDB7DEB7A1970FB6F89487
:10065000DEBF0FBECDBF789484B5826084BD84B503
:10066000816084BD85B5826085BD85B5816085BDAD
:1006700080916E00816080936E0010928100809165
:1006800081008260809381008091810081608093ED
:100690008100809180008160809380008091B10012
:1006A00084608093B1008091B00081608093B0003D
:1006B00080917A00846080937A0080917A008260D1
:1006C00080937A0080917A00816080937A00809193
:1006D0007A00806880937A001092C10062E083EA19
:1006E00091E00E94E10160E871E080E00E949502E3
:1006F00068E771E081E00E94950260E771E082E0C6
:100700000E94950268E671E083E00E94950260E62F
:1007100071E084E00E94950268E571E085E00E9446
:10072000950260E571E086E00E94950268E471E060
:1007300087E00E94950260E080E00E94800260E015
:1007400083EA91E00E94D80161E083EA91E00E948F
:10075000D80162E083EA91E00E94D80163E083EA75
:1007600091E00E94D80164E083EA91E00E94D80100
:1007700065E083EA91E00E94D80166E083EA91E0B7
:100780000E94D80167E083EA91E00E94D80188E8DE
:1007900091E00E94C30261E080E00E94800281E952
:1007A00091E00E94C30219A282E388A3CE01809641
:1007B0000E94C30228E0E22E21E0F22E10E0B701F1
:1007C000812F0E94950261E088E0810F0E948002E3
:1007D000612F83EA91E00E94D8011F5F28E0E20EBA
:1007E000F11C183061F790E0A92E90E0B92E10E0CE
:1007F00060E087E00E948002612F83EA91E00E941E
:10080000D8010E941D012B013C0188ECC82ED12C7F
:10081000E12CF12C0E941D01DC01CB01841995090A
:10082000A609B709883E9340A105B10558F081E0BB
:10083000C81AD108E108F10828EE420E23E0521E42
:10084000611C711CC114D104E104F10419F71F5F8C
:10085000183071F6A114B10451F20E940000C7CF04
:10086000E3EAF1E01382128284E091E091838083D5
:1008700087E084838FEF858386E0868385E08783A6
:1008800084E0808783E0818782E0828713861486F4
:1008900015861686178661E0CF010C94E101EE0FF4
:1008A000FF1F0590F491E02D099481E090E0F89409
:0808B0000C945A04F894FFCFE8
:1008B80000000000D801A6000E1B11111111111F14
:1008C8000E1B111111111F1F0E1B1111111F1F1FBC
:1008D8000E1B11111F1F1F1F0E1B111F1F1F1F1F74
:1008E8000E1B1F1F1F1F1F1F0E111F1F1F1F1F1F44
:1008F8000E1F1F1F1F1F1F1F0E1F1F1F1F1F1F1F22
:100908000E111F1F1F1F1F1F0E1B1F1F1F1F1F1F23
:100918000E1B111F1F1F1F1F0E1B11111F1F1F1F33
:100928000E1B1111111F1F1F0E1B111111111F1F5B
:100938000E1B11111111111F7869616F6C616261D1
:0A0948000068692C6C696E65000000
:00000001FF
